S01300007573335F6D736869656C642E73726563B1
S21400200000800020D5280000B7280000D128000056
S21400201000000000000000000000000000000000BB
S214002020000000000000000000000000B7280000CC
S2140020300000000000000000B7280000292900006A
S214002040B7280000B7280000B7280000F9430000B2
S214002050B7280000B7280000BD280000B7280000F9
S214002060B7280000B7280000715D0000815D000001
S214002070615D0000395D0000B7280000B728000049
S214002080B7280000B7280000B7280000B7280000CF
S214002090B7280000B7280000B7280000B7280000BF
S2140020A0B7280000B7280000B7280000B7280000AF
S2140020B00000000010B5064C2378002B07D1054B16
S2140020C0002B02D0044800E000BF0123237010BD9F
S2140020D01003002000000000142C0100084B10B56F
S2140020E0002B03D00749084800E000BF07480368F4
S2140020F0002B00D110BD064B002BFBD09847F9E70C
S2140021000000000014030020142C0100000300202F
S2140021100000000010B503F01FF8034B186003F032
S21400212025F8024B186010BD300300202C03002059
S214002130012210B5034B044907201A7002F056FE20
S21400214010BDC04635030020640A010070B50620A5
S21400215002F0D6FA042213490500062002F0ACF875
S21400216003F0C0FC104B114C1B689D4202D000F0DF
S214002170E9FB206000F0E6FB2368C01A0C4B1B68E6
S21400218098420DD90B4C2378012B09D10A49072018
S21400219002F02CFE094B187803F0D4F900232370C4
S2140021A070BDC04631210000400300203C030020E3
S2140021B00400002035030020740A010034030020C8
S2140021C010B502F07BFD014B186010BD38030020EF
S2140021D01FB5E1212248490201F0ACF896212148BA
S2140021E0C90100F079FE002003F0AEFB01211420A7
S2140021F002F02EFA0121132002F02AFA0121102003
S21400220002F026FA0121112002F022FA0021142001
S21400221002F022FA0021132002F01EFA0221062004
S21400222002F016FA03F0B4F802F0A0FF0E4C20609D
S21400223002F092FF0D4B0E4A186023680D49029378
S214002240012301930C4B0D4800930D4B03F024F92A
S2140022500C4B187003F06CF900220B4B1A701FBD64
S21400226034040020381400204403002048030020D3
S214002270652800008923000095220000860A0100D8
S2140022809D280000340300203503002000207047FE
S2140022907047000010B50B4904000BF03AFC00280C
S2140022A003D14322084B1A7010BD084920000BF0DA
S2140022B030FC03000120002BF6D14621024A18000C
S2140022C01170F1E78F0A01004C030020950A010007
S2140022D010B50221062002F0BBF9062002F010FA23
S2140022E0054B0022012805D00122002802D01860E4
S2140022F0186810BD1A60FBE72404002030B5174BA1
S2140023008FB01A7F050001A80271154A05A901922F
S2140023101A6A5B6A8260C36002F01DFB0A9C211C7D
S214002320201C08F0E9F9002800D00E4C0E4B1B7854
S2140023305BB2462B0DD1201C0AF054F80B4A0C4B0E
S21400234009F0ECF90AF0A0F88421C90507F07AFE36
S214002350041C00202C600FB030BDC046580300207F
S214002360900C01000000C8424C030020CDCCCCCC21
S214002370CCCCFC3F0122034B00201A7192185A70F5
S2140023807047C0464C030020F0B546220026334B6B
S21400239091B01A705E70FFF7EDFF314C200002F02E
S2140023A02FFB304802F0E0FD237F02AA13712E4B6C
S2140023B010000293236A06A90493636A01930593A7
S2140023C002F052FB294C200002F0CEFD284F3800C8
S2140023D002F0CAFD274802F0B1FD06A802F0C4FDCF
S2140023E0254802F0ABFD099802F0D4FD200002F06B
S2140023F0BBFD224802F0A2FD0A9802F0CBFD2000A9
S21400240002F0B2FD1E4802F099FD0C9808F08CF917
S21400241002F0C0FD1B4D280002F0A6FD1A4802F08F
S2140024208DFD0D9808F080F902F0B4FD280002F04A
S2140024309BFD164802F082FD0E9808F075F902F032
S214002440A9FD280002F090FD380002F08DFD200066
S21400245002F08AFD300011B0F0BDC0464C030020EB
S214002460580300209B0A0100900C0100CE0B0100CF
S214002470B50A0100DA0A0100E90A0100F80A0100BB
S214002480070B0100160B0100190B0100280B0100B9
S214002490012313B5074C5B42019300930B220733CD
S2140024A00021200002F094FA034A0449200007F0B5
S2140024B0ABFB13BD58030020000000209122000053
S2140024C070B501210400142002F0C6F80121132083
S2140024D002F0C2F8642000F06BFAA61D0B4D2178BE
S2140024E02800013400F0B6FDB442F7D1280000F011
S2140024F00EFD0021142002F0AFF80021132002F098
S214002500ABF8322000F054FA70BDC04638140020F4
S214002510F0B5040085B010200D00012102F09CF8F3
S2140025200021112002F098F8544800F041FA2000EB
S214002530FFF7C6FF524E300000F0E4FC002800D142
S21400254098E0504C300000F0F3FC012802D0013C2B
S214002550002CF7D101232F002B70AC1C0C37300059
S21400256000F0E6FC20700234BC42F8D1464C4749E5
S214002570200000F0CDFA29781022200000F037FB6A
S214002580A9781022200000F032FB297910222000C2
S21400259000F02DFBA9791022200000F028FB297AF4
S2140025A01022200000F023FB1022A97A200000F061
S2140025B01EFB3749200000F0ABFA300000F0A7FC05
S2140025C03449200000F0A4FA287A08F01DF909F032
S2140025D009FF314A314B09F0A1F80022304B09F0CF
S2140025E01DFB09F051FF2F4E2F493060200000F0F0
S2140025F06AFA306809F0F6FE022702000B00009720
S214002600200000F0B9FB2949200000F081FAA879E3
S214002610274E000208F0A8F80390287908F0F4F88E
S214002620011C039807F00EFDF021890507F044FF12
S21400263020493060200000F046FA306809F0D2FEEB
S214002640009702000B00200000F096FB20001A49BD
S21400265000F05EFAFA20800000F0AAF900211020AF
S21400266001F0FAFF0121112001F0F6FF104B186867
S21400267005B0F0BD11490448EAE7C04688130000DB
S21400268038140020E9030000340400206B0B01001E
S214002690760B01007F0B01000EF3E505D847DF3F00
S2140026A00000494010040020920B0100160B0100A8
S2140026B014040020A00B0100A80B0100AC0B0100C5
S2140026C0F0B5D1B0019002F047FD040002F04EFDD7
S2140026D003220090524903A80AF0FBF8032251494E
S2140026E004A80AF0F6F803224F4905A80AF0F1F804
S2140026F003224E4906A80AF0ECF807224C4909A81E
S2140027000AF0E7F803224B4907A80AF0E2F84A4F16
S21400271030A839000BF007FA390010A80BF003FABE
S214002720464800F0F4FB46494648FFF7F1FE09F03C
S21400273059FE0B000200444909A80BF0BBF9FFF74D
S214002740C7FD424D0200290007A80BF0B3F902F0BE
S214002750B5FA0600020029000BA80BF0ABF9320010
S214002760290030A80BF0A6F903A930A80BF0C4F98D
S21400277009A930A80BF0C0F905A908A80BF0D3F9F1
S21400278008A930A80BF0B8F9314D30A829000BF095
S214002790B3F90BA930A80BF0AFF904A930A80BF0D9
S2140027A0ABF907A930A80BF0A7F906A908A80BF003
S2140027B0BAF908A930A80BF09FF9290030A80BF049
S2140027C09BF930A910A80BF0AEF92000009907F08D
S2140027D0B7FA204E013835681F4CA84203DD1F4B60
S2140027E01B68012B15D110A920000BF085F92100DC
S2140027F001980BF098F9002319490720220033604E
S21400280002F0F4FA390020000BF08DF9002051B0E8
S214002810F0BD013510A9200035600BF06DF9F5E725
S214002820580B01005B0B0100A90B01005E0B0100B9
S214002830610B0100680B0100CE0B0100381400206C
S2140028401804002008000020370B01003D0B010093
S214002850ED170100540300209003002024040020FC
S214002860410B0100002370B5A2B0060001A80D00C0
S2140028700193FFF743FD041E0DD101A902A8FFF73F
S2140028801FFF041E07D102A930000BF04CF902A866
S2140028900BF051F92870200022B070BD70B50E0004
S2140028A000210400FFF70CFF050020000BF043F9A1
S2140028B03070280070BD03BEFEE70000034B10B565
S2140028C01B68002B00D0984710BDC0462804002087
S2140028D00DBEFEE770B50F490F4CA14204D100F0C3
S2140028E085FA00F0A3F8FEE70C4D00238D42F6D0E3
S2140028F0CA18E818A24205D39042F0D0084B0949FE
S214002900002204E0006804331060F1E704C38B4241
S214002910FCD3E4E700000020100300207C2C01001C
S214002920100300204822002010B500F07CF8002894
S21400293001D100F063F810BD014B18607047C04627
S21400294028040020014B18687047C0462C0400205D
S214002950F7B51348012284461249134C8E68636803
S21400296005689B0E1340019288686268019F920E6C
S2140029703A4067463F6893420ED1BD420CD186422C
S2140029800AD35B19FA254868AD00861B07486B43D7
S2140029907043000DC018FEBD3D0013000600E3E7BF
S2140029A02C04002010E000E000ED00E0555500008B
S2140029B0F7B5041E1CD0EFF3108372B60D4E0E4F03
S2140029C035683A680192DB0700D462B6EB439C4256
S2140029D004D964190025019B0133019300F022F805
S2140029E03B68019A9342F9D333685B1B9C42F5D847
S2140029F0F7BDC0462C04002030040020074B10B55D
S214002A001A6801321A601B68002B03D1044A136847
S214002A100133136000F0C8F910BDC0462C04002036
S214002A2030040020704700207047704710B501F052
S214002A3001FD09F0E3FEFFF7F8FF0120FFF7B8FFFE
S214002A40084C200000F0E0FE200000F03DFFFFF7FD
S214002A50BFFBFFF77BFB044B002BFAD000E000BF68
S214002A60F7E7C0465004002000000000F7B5060057
S214002A700D000C008B180193019B671B9C4207D02E
S214002A80336821781B683000984701340028F3D15A
S214002A903800FEBD70B505000C00081E07D00BF010
S214002AA04AF82B6802005B6821002800984770BD32
S214002AB010B5FFF7EFFF10BD10B503688A685B68B6
S214002AC00968984710BD10B5FFF7E4FF10BD10B5B4
S214002AD003681B68984710BD10B50249FFF7DAFF78
S214002AE010BDC046CC0B010070B50400FFF7D2FF46
S214002AF005002000FFF7F0FF401970BD70B5050017
S214002B00FFF7DAFF04002800FFF7E6FF201870BD85
S214002B1070B50400FFF7BEFF05002000FFF7DCFFDE
S214002B20401970BD70B50500FFF7D1FF04002800FE
S214002B30FFF7D2FF201870BDF0B5160000228DB04A
S214002B4002AB053301900D00DA77012E00DC0A2671
S214002B500BAC2800310007F0EFF80F00CBB22800CE
S214002B603100009307F062F8FBB237330500013CF2
S214002B70DBB2092F02D8009B3033DBB22370002D66
S214002B80E7D121000198FFF785FF0DB0F0BDF8B53D
S214002B9006000C00151E04D10368C9B21B689847CE
S214002BA0F8BDD2B20A2D0DD12A0000290ADA2D214D
S214002BB0FFF78DFF614207002A003000FFF7BCFFD9
S214002BC03818EDE721003000FFF7B6FFE8E710B54C
S214002BD0FFF7DDFF10BD10B5002A04D10368C9B2A7
S214002BE01B68984710BDD2B2FFF7A6FFFAE770B58C
S214002BF00400FFF7F0FF05002000FFF76DFF401907
S214002C0070BD0000F0B51E0085B00AAB1B7805004D
S214002C100193100033003100170009F015FB00285F
S214002C207BD04D4990E0E0224C4B12063800310034
S214002C3007F09CF9002801D0494985E0E022494B7D
S214002C4012063800310007F07DF90028F4D1002282
S214002C5000233800310007F075F9002814D02D2124
S214002C602800FFF734FF80231B060290F618002486
S214002C7000203D49019B9C4208DA00223B4B013470
S214002C8008F018F9E4B2F5E70290F0E733003A00EE
S214002C9007F000FE0F00060007F0B6F90A220390C0
S214002CA001002800FFF748FF029BC418019B002B79
S214002CB04ED0039809F05EFB02000B00300039008E
S214002CC008F0ACFF06000F0028002E21FFF7FFFEDD
S214002CD02418019B002B3BD0244B002230003900E7
S214002CE008F01CFD0F00060007F08EF90A2201000E
S214002CF002902800FFF720FF2418029809F03AFBFC
S214002D000B0002003900300008F088FF019B060027
S214002D10013BDBB20F000193DBE70122740064087D
S214002D205242134B3800210009F08EFA002800D0DA
S214002D3079E701220E4B52423800210007F00CF9C9
S214002D40002800D06FE70B492800FFF7A3FE040019
S214002D50200005B0F0BDC046C80B0100FFFFEF41E4
S214002D60C40B0100FFFFEFC10000E03F000024405D
S214002D70FFFFEF7FC00B010037B51D006B461B7EC3
S214002D8000932B00FFF73EFF3EBD0000014B18608E
S214002D907047C046100000200122024B52421A60C3
S214002DA07047C04610000020054A10B51368591C2D
S214002DB005D0013B1360002B01D1024B984710BD94
S214002DC010000020192C01000249034B4A681A42E1
S214002DD0FCD1704700180040FD0700000E23024992
S214002DE00A781A42FCD17047380C00408422F8B5A5
S214002DF0294B2A4D5A6040236A69022113436B61AE
S214002E0080230122DB059A7198780143997099799D
S214002E101142FCD00121224C9A71224B227022785A
S214002E200A4202D062681A42F9D11F4B1F4A5A6101
S214002E30022259690A435A610122D9681142FCD01C
S214002E401B4B1C4E0227F362FFF7C8FF00231A4AEB
S214002E5033631370FFF7C2FF184B1F70FFF7BEFFF8
S214002E60174A13783B42FCD001232B71154D25627F
S214002E70FFF7AAFF2563FFF7A7FF0C22337D9343D6
S214002E801A000423134333750F4BE362FFF79CFFCE
S214002E900E4A0F4B1A60F8BD004000410004004087
S214002EA000180040FD070000001000401C04000051
S214002EB0710B0000000C0040340C0040280C004051
S214002EC03C0C00400803020006010100006CDC0216
S214002ED0880000200120704710B50368014A1B6A6D
S214002EE0984710BD1304000010B50400006903F0F5
S214002EF02CF82000143002F0BDFF20005C3002F0F9
S214002F00B9FF10BD10B5143002F0C8FF10BD10B5E3
S214002F10040020005C3002F0C1FF0028F9D12069CF
S214002F2003F028F810BD10B55C3002F0BDFF10BDF0
S214002F3070B5050004001435280002F09FFF23003A
S214002F40A8331B780600FF2B0AD0280002F0ACFF3F
S214002F500A2805DD2300B434B0331B6822681A60E3
S214002F60300070BD10B5143002F0ACFF10BD00008C
S214002F70F7B51D0008AB1B780400009309AB1B785F
S214002F801600019300234360FA239B0083600E4BD8
S214002F900F0008330360143002F056FF20005C3048
S214002FA002F052FF6A4623001278A43327619A7013
S214002FB06A4612791E70DA7022005D70FF23A8320E
S214002FC0200013701374FEBDD00B010070B5040012
S214002FD0006902F0DBFF002819D02500206902F006
S214002FE0EAFF14350100280002F039FF2300A83359
S214002FF01B78FF2B0BD0280002F056FF092806DCB2
S21400300023002200AC33B4321B6812681A602069B1
S21400301002F0CCFF00280DD025005C35280002F019
S2140030203DFF002812D0280002F028FFC1B2206918
S21400303002F0C5FF206902F0AEFF002805D0206927
S21400304002F0ADFF206902F09DFF70BD206902F01E
S214003050C2FFEFE7F8B5040000690E00250002F095
S214003060A5FF5C35002820D13F27280002F034FF5A
S21400307000282DD0EFF31083012213420CD1EFF37A
S21400308005833B40F1D0103B5BB2002B17DB9B085F
S214003090C033144A9B009B58206902F087FF002823
S2140030A0E3D02000FFF792FFDFE7280002F0F6FEED
S2140030B00028D9D13100206902F081FF0FE00F22ED
S2140030C01340083B9B08084A9B009B181B68E3E7D5
S2140030D02800310002F0C3FE206902F078FF0120CC
S2140030E0F8BDC04600E100E01CED00E0F020014025
S2140030F03039484248417047F0231B01194080236D
S21400310006209B0099420AD00133FF3301309942D2
S21400311005D0802302385B00994200D0002070471B
S2140031200F2001400020012903D00239481E8141AA
S214003130481C70470300F0B50400A43385B0187827
S2140031400F000E21150001F0F1FA2300A5331878C0
S2140031500E2101F0EBFA2300A73303931B78022B12
S21400316007D12300B8331878FF2802D00E2101F0CB
S214003170DDFA2600A8363078FF281AD0012101F0A3
S21400318067FA0C2133781F4A594320008B5C52188B
S214003190517801221C4EDB01AC309E1906601B489C
S2140031A08A401B1821002000B431B03003600A604A
S2140031B01A6001223B001100206903F01BF8290069
S2140031C02000FFF799FF290006002000FFF7A8FF60
S2140031D0290007002000FFF789FF3B000090310020
S2140031E02069012202F085FE2300A6331A78039B8D
S2140031F02069197802F097FE206902F0B2FE05B049
S214003200F0BDC0469C0F010018280040142800405E
S2140032103F20704713B56B460268D9710733546870
S21400322019000122A04716BD10B50221006900F062
S21400323031FC10BD10B50321006900F041FC10BD43
S21400324010B5130004000A000069032100F032FDE7
S214003250002801D10123636010BD000010B5054CA5
S21400326023685A1C04D103685B69984703002060F2
S214003270180010BD5C000020074B0200186810B54F
S214003280411C03D0012252421A6010BD022110696F
S21400329000F002FDF9E7C0465C00002010B5037898
S2140032A03A22023303700249024800F0AFFD10BD17
S2140032B0200000205004002010B50178030042785A
S2140032C00020A12908D1212A05D11A3A1649174803
S2140032D000F09CFD012010BD2129FCD1202A11D12F
S2140032E0193A1149114800F02FFC96220E4BD200D5
S2140032F01968914203D10124D87904400ED0FFF713
S2140033004BFD0EE0222A03D19A78074BDA71ECE7E0
S214003310232AE0D15A88064B1A60DCE7FA20FFF72A
S21400332035FD0020D7E7C0461800002050040020D6
S214003330140000207047000010B5FFF703FBF423CD
S214003340FF330024984207D9044B0A20DC79631E19
S2140033509C41E4B2FFF72CFB200010BD18000020B3
S214003360FA220021054B92009A60054A59600832FD
S2140033701A60044A19761A617047C0463404002061
S214003380040C01005004002030B50F25CB1D013978
S21400339002002A40140000093034092A01DD3732C1
S2140033A014001C70013B8B42F2D130BD70B58229EF
S2140033B01FD1C3B22C4D5A01AA1891692B4C80011B
S2140033C00C40C0218905214391612949083308181A
S2140033D0802150612A685B01D01804794942214354
S2140033E001717020995C8143080030210143995493
S2140033F070BD0029FCD1C024C1B21B4E4B01F3188E
S2140034009A681A4DA4052A4022439A60194A8001F8
S21400341010180A0058603068072608325201115CFE
S214003420B1430E0001213143115499690D402C43DC
S2140034309C6170240E495961115CA1430C00102157
S2140034402143115499680C4C82180C408021490382
S214003450214399609968890B8903996040235179C3
S2140034600B435371C4E7C04608090020FFFFFF8FD7
S2140034707C0400203C060020FF3F00F070B50400EE
S214003480012320CC00212A782000134380222B70B1
S214003490520009F039FAAB78DB07FCD46C6270BDD9
S2140034A01F22144B70B51B68590B9C0C9B011140D6
S2140034B05B0F22401F2900D11A391F2A00D1023A79
S2140034C0072B00D1043B1F2500688E01048D0A4996
S2140034D02A40214031430185018D14000A00AA4389
S2140034E022430285028D1903044B13400B430385C8
S2140034F070BDC046206080003FF8FFFFFF8FFFFFD3
S214003500EFF3108303600123436072B670470368CD
S214003510002B02D162B6BFF36F8F704737B50569CF
S21400352004006846002D14D1FFF7EAFF019B621DD8
S214003530013B02D3D57FEDB2FAE768460193FFF769
S214003540E6FF002D01D100203EBD206AE369C01AC7
S214003550FAE7FFF7D5FF22000025019B3432013B36
S21400356002D31578EDB2FAE768460193FFF7CFFF6E
S214003570002DE8D0206BE36AE9E70000F0B50125EE
S2140035804668037A31685A018C18FF34A77AB21855
S2140035903D43A572C468094D9068A40428402409D8
S2140035A02043906090680833800B80039060402230
S2140035B05B01CB1819790A431A71F0BDFF3F00F082
S2140035C0F7B5036904000E0017006846002B3DD1CE
S2140035D0FFF796FF019B611D013B5A1C0CD0CD7F67
S2140035E05A1EEDB2002D05D168460193FFF78FFFF6
S2140035F02800FEBD1300F0E7684601930025FFF79C
S21400360086FFE369AF4202D0226A934257D3226A0A
S2140036109342EDD10023E361013323616846FFF74F
S2140036206FFF22000021019B671D013B3532581CAD
S214003630DAD0F97710785E1E002805D011702000C9
S2140036400193FFF79BFFECE73300F0E7FFF758FF27
S2140036502100019B3431013B5A1C06D00D785A1EBE
S214003660EDB2002DC0D01300F6E7684601930025A2
S214003670FFF74DFFE36ABD4202D0226B934226D38A
S214003680226B9342B4D100236846E3622361FFF7BE
S21400369037FF270022000021019B3437013B3532DB
S2140036A0581CA1D0397010785E1E002805D0117005
S2140036B020000193FFF762FFEBE73300F0E75A1CA8
S2140036C0E261A269D3181B787355013599E75A1C35
S2140036D0E262A26AD3181B7873550135CAE7F7B5BC
S2140036E0027A43681100040008311868490141183D
S2140036F0C879C00727D501255201CD719B189A6855
S21400370061699204920C002921D12262226A002A61
S2140037103ED0A26A656168465A60FFF7F1FE270050
S2140037202100019B661D013B343735315A1C2BD0D6
S214003730F5773A78581ED2B2002A05D0019368462B
S2140037400D70FFF7E4FEF7BD0A700300EEE7226394
S214003750226B002A1CD000226261A26968465A6069
S214003760FFF7CEFE26002100019B3436013B671D85
S21400377035315A1C08D03570FA7F581ED2B2002A4E
S214003780DCD10A700300F4E768460193FFF7BFFE3A
S2140037902000FFF7F3FED6E737B56B46DC1D0023A7
S2140037A00D0020002370FFF779FD2B68181828609D
S2140037B002F0C2FD210002F07BFD2B68181828607D
S2140037C020783EBD03290ED180220E4B62311B6845
S2140037D0FF31585C524202435A5468226339FF391B
S2140037E0FF32995470470129FCD18022054B2431C1
S2140037F01B68FF31585C524202435A542339FF3942
S2140038002822EDE70809002070B50024264B012188
S214003810050015201C7000F01BFF0121152000F08C
S2140038201BFF224B012114201C7000F011FF012108
S214003830142000F011FF01231D4A1820916940341E
S2140038400B4393610F2100F071FF0F21192000F048
S2140038506DFF184B1C601A682242FCD01648FFF712
S2140038606BF8164E3000FFF709FE3000FFF718FE23
S2140038707F213368C1201A7880000A401A7004221B
S21400388019780F4E0A430C211A701A898A431A8136
S2140038900C4A1158314011501460022219780A431C
S2140038A01A7001232B7070BD710400207004002074
S2140038B000040040901800409942000008090020CB
S2140038C0FFFF00FF00E100E00078002810D0012193
S2140038D0084B1B681A898A431A810822198B0A43E7
S2140038E01A830422198B0A431A830022024B1A6099
S2140038F07047C046080900200009002010B5104A8D
S21400390093699B0B9B03936113680222FF331A7221
S2140039109879823A02439A711A7A9207FCD58222E3
S2140039207F24D205937A2140A34308001900802300
S21400393001439172917A5B420B43937210BDC0466D
S2140039400809002010B50B790C00002B0CD10800DC
S214003950FFF7B2FC002801D0012010BD094A936988
S2140039609B0B9B039361F7E702F0E6FC210002F055
S214003970D2FC0028F0D1034A93699B0B9B0393610A
S214003980EBE7C04608090020F7B50D00832A19D1D9
S214003990CBB2324C5A01A21891693148AD010840A9
S2140039A0C0218905014391612E4920684D19702177
S2140039B0083355615B011A5C8A43110040220A43B2
S2140039C01A54F7BD022A44D18B000193264B8A0075
S2140039D0D658002EF5D1382002F02EFA234B1F4F72
S2140039E0036080235B00C360431D0662856006613A
S2140039F04661C66104004760DE77C66206638020C3
S214003A002F331E7040005E7008F02EFF0600A06187
S214003A108020400008F028FFEDB26B01A062FB1882
S214003A209A680F4907201140C02292050A439A60FF
S214003A303A6808356D01A95C8143080003210143FB
S214003A40A95420005E60FFF799FD074B019AD450F9
S214003A50B7E711002800FFF7A9FCB2E70809002025
S214003A60FFFFFF8F7C04002054040020300C010070
S214003A7070B505000124064BA200D258002A05D0D6
S214003A8021002800FFF780FF0134F4E770BDC04630
S214003A9060000020084B8A00D05810B5002803D0DC
S214003AA003689B68984710BDC9B2044B4901591872
S214003AB088688004800CF6E754040020080900207B
S214003AC010B50C00FFF7E6FF00280CD0064BE4B25A
S214003AD01B68083464011C19802362795B42134317
S214003AE063710223E37110BD0809002070B5134B03
S214003AF0CCB2134A600189015918131859609968A5
S214003B00104D08340D4080218902294340259960D4
S214003B109968890B8903996011686301CB181E792F
S214003B2035431D719D796D06FCD564010919CB7965
S214003B30DB07FCD512189068C0B270BD3C060020AA
S214003B4008090020FF3F00F070B5140040220B4B20
S214003B500D001B68FF3359790A435A710021FFF79D
S214003B60C5FFA04200D9200000230549A34203D088
S214003B705A5CEA540133F9E770BDC04608090020D4
S214003B803C06002010B5C9B20B484901421893689C
S214003B909B049B0C3F2B0BDD9468403B9B04A40BC3
S214003BA09B0CA4032343936041188868C0B210BDE1
S214003BB093689B0B9B03F6E708090020F0B51C00F2
S214003BC0304B85B01B6806000D000192002B55D0C7
S214003BD02D4F3978C9B2002902D1142000F03CFDDF
S214003BE064233B70294BAA00D058002808D00368ED
S214003BF022005B68019998470400200005B0F0BDDC
S214003C0029003000FFF746FF844204D9290030001F
S214003C10FFF740FF040029003000FFF7B3FF012143
S214003C20EBB21B4F03935B010293029A3B68019829
S214003C309B18FF335A7A0A4316495A72AB01C918C1
S214003C40220008F046FE002CD7D029003000FFF7EF
S214003C5021FF0028D1D14021039B3A6808335B013D
S214003C60D3181879014319710121D9710121029BDA
S214003C70D318FF339A7A0A439A72BEE70124644245
S214003C80BBE7C04600090020700400205404002052
S214003C90080900203C06002013B56B46DC1D2200F8
S214003CA00123FFF78BFF012801D1207816BD0120E4
S214003CB04042FBE7F0B51E003A4B85B01B680F008C
S214003CC00192002B3FD08023DB019E423BD8364C2E
S214003CD02178C9B2002902D1152000F0BDFC64236A
S214003CE00025324A2370BB01D3180293002E2CD035
S214003CF02F4B1B680393FF233B401C0000930834A4
S214003D00039B64011C19A379DB0921D0294B2A499E
S214003D10186805F08BFF294B1721584305F086FFDE
S214003D20274BE279920713D4DA5D002A01D10138D5
S214003D30F7D20122DA55009B5A011D4B9B189A694F
S214003D40920B92039A6101256D42280005B0F0BDE2
S214003D5000221B4B3400DA553F2E00D93F242200A8
S214003D600199029808F0B5FD009BA1045A01104B7A
S214003D70890C9B18029A2D195A619A69361B920B68
S214003D8092030A439A61009B039A08335B01D31897
S214003D900222DA715979823A0A435A71019B1B1939
S214003DA00193A3E700090020710400207C04002092
S214003DB0080900208800002040420F007011010012
S214003DC07304002070B50D001C000D4EAB01F618F4
S214003DD011003000220008F07CFDEDB209496D01AB
S214003DE04D196E61AB69084A20001340AB61AB69A0
S214003DF0A2049B0B920C9B031343AB6170BDC046A1
S214003E007C04002008090020FF3F00F0F7B5104BA7
S214003E1001901B780F001500002B0CD10D4B1600DF
S214003E201C78002C09D00C4E0C48348800196419F4
S214003E3008F04FFD34802800FEBD002EFBD03A1956
S214003E40330000210198FFF7BDFF2418361AF4E767
S214003E50FC070020FD080020FE080020FD070020CB
S214003E60F8B5002000AF0E001500012A26DDD31D90
S214003E706A46DB08DB00D31A9D46080009F05BFEA5
S214003E806C460323002101304000207063705A1EE8
S214003E90D2B295420BDD3078002808D00136A05407
S214003EA09D4203D0E1540233DBB2F0E72A00210042
S214003EB00348FFF7ABFF431E9841C0B2BD46F8BDAE
S214003EC050040020F0B50027012687B01E4B009155
S214003ED002A91E7005000297FFF75EFC03AC019076
S214003EE009223900200008F00FFD09232370022361
S214003EF063709E33E3715A332372029B66710933F3
S214003F0063806B461B7923710F4B1F70009B092B38
S214003F1007D11A0021002800FFF778FF012007B01C
S214003F20F0BD0A4B09221E70094E21002800029798
S214003F303780FFF76BFF02A92800FFF72DFC034B25
S214003F4032881F700349E6E7FC070020FD080020C2
S214003F50FE080020FD07002070B5CE7892B0050060
S214003F600C00022E08D1C9882B48FFF7ABFF431E72
S214003F709841C0B212B070BD02F0DEF9210002F026
S214003F80ABF9002803D0C317181AC00FF2E7012EAA
S214003F900BD1E2882149112A10DCD2B2002A0DD0BA
S214003FA02800FFF733FF0120E4E7032EE2D1A378D1
S214003FB0002B05D1E2881A49032AEEDD0A78EFE7DE
S214003FC0022B05D1A27917492800FFF749FFD1E750
S214003FD0012B02D1A2791449F6E7032BCAD1134B61
S214003FE001A91868FFF7D0F9114B03A91868FFF765
S214003FF0CBF9104B05A91868FFF7C6F90E4B07A9B1
S2140040001868FFF7C1F902F097F909A902F074F9E8
S214004010A27901A9D8E7C046500400205E0C010032
S2140040204A0C01003C0C01004E0C01000CA0800064
S21400403040A0800044A0800048A0800073B5060021
S21400404048780D000B2811D805F0E6FD061D102E49
S214004050104348704C4F696C097801AA002907D1B3
S2140040600223117051703000FFF7ACFE012076BDC0
S2140040700023137053702E4B1B78012B00D1137046
S21400408002230021EFE78A780023012A04D101AA3F
S21400409013705370274BEFE7254A1370264A93692F
S2140040A09B0B9B039361E1E78C78012C06D10021E2
S2140040B0204B01AA1C7011702300D4E7002C08D1F5
S2140040C001201B4B1C4A187093699B0B9B03936142
S2140040D0CDE7A9783000FFF711FCC7E73000FFF7FF
S2140040E03BFFC4E70123154ACBE70B780020DB062D
S2140040F0BDD13000FFF7BCFC2A200221AA780F4B66
S214004100FF301A600C4A13681C5C21434A24195479
S214004110FF34195D2938FF3801431955D4E70123C8
S214004120074AAEE78A78064B1A60B7E700209EE794
S214004130720400207A0400200809002000090020EC
S214004140040900204C4BF7B51C780700002C00D063
S21400415091E04A4E33689B8B1B070ED5210020004A
S214004160FFF724F9326810231100FF31887A0343E1
S2140041708B72434B1C600823938333689A8B5207D9
S2140041801FD504229A833F4A1378002B0AD013784F
S214004190013BDBB213701378002B03D101211520ED
S2140041A000F05AFA384A1378002B0AD01378013BED
S2140041B0DBB213701378002B03D10121142000F01A
S2140041C04BFA3368FF331A7AD20620D510221A72B9
S2140041D0597930320A435A7160232C4938000A78DC
S2140041E01A4235D1FFF72AFF002834D080223368E0
S2140041F05242FF3399790A439A713368FF331A7A29
S214004200520604D540221A72597A0A435A72336803
S21400421007251C8C01239C43E4B20193E9B2002CD1
S21400422029D0002D27D023002B41019A13420DD010
S2140042302B00326808335B01D318DA79D20711D421
S214004240DB799B070ED4019BAB409C43013DE5E721
S214004250FFF778FBC8E720220D4BCDE703681B6805
S2140042609847F0E70B4BAA00D0580028F6D1380044
S214004270FFF7A8FAE7E7F7BDFD08002008090020C9
S2140042800009002071040020700400203C06002075
S214004290FF0000415404002010B50248FFF752FF0B
S2140042A010BDC046500400208222024BD2051A6080
S2140042B07047C046080900200C23F7B54343019217
S2140042C0434A0091995C0600002908D1D3185B7810
S2140042D01F2B04D1019B0231023B8B4343D00C239E
S2140042E07343D3189C7A122C3DD03A4F3D68002D6C
S2140042F02BD129004422384808F006FB2900442226
S214004300364808F001FB0821354B364A1D60364B0F
S214004310D967BFF34F8FBFF36F8FC023C0205B00FA
S214004320D150800013588B40CB401350802311602F
S2140043302E4A9B0051690B43536140232C4A13605D
S21400434011681942FCD001233B600421300000F0C4
S214004350EDF9002807D10122009BA240002B03D1D3
S214004360244B5A611A61F7BD1D491C4E0D68830027
S214004370A84227D10130086000981749F250C8506B
S2140043800723A3429B4100205B42D900641A1949C7
S214004390A400087003304D680542FCD10725A540EF
S2140043A014489B001B18D869019EA8430525AD1B21
S2140043B0A5402843D86102230B7001334868184291
S2140043C0FCD1CDE7F758BA42D6D00130CFE7C04689
S2140043D09C0F0100940A00200C0A0020500A0020BE
S2140043E0980A002000E100E004E100E0000400403C
S2140043F08C18004000240040F8B50024094B1B68C8
S2140044009C4200D3F8BD084E084FA5007369EA59D0
S2140044101A4204D0064BEB589847EB5973610134A7
S214004420ECE7C046980A002000240040500A00200E
S2140044300C0A0020C0201A491A4B1B4A10B54B60C4
S214004440136A00061B021B0A034313620024072399
S2140044508C600B608021136A09061B021B0A0B4343
S21400446006211362114BDA69186A014319620821A2
S214004470186A01431962D96911430D4A0A43DA6181
S21400448020001A21013400F0E3F8252CF8D100F0C2
S21400449095F8052000F032F800F00CF810BDC04684
S2140044A010E000E07FBB000000ED00E000040040EC
S2140044B0FF1700000C490D4B4A681A42FCD14023F6
S2140044C00B4A536051681942FCD03F22094B996849
S2140044D01142FCD102225A70C22292009A81DA81DD
S2140044E00122054B1A70704700180040FD070000B7
S2140044F0FC180040003000429D0A002010B52A4BF0
S21400450004001B78002B04D10122284B1A7000F0FF
S21400451055F8032C06D10721200000F007F90028E3
S21400452009D010BD042CF6D0002C2BD1204A2149EE
S214004530D3690B40D3610F211F4B0C409A788A43F6
S21400454014439C701A8C5205FCD1197802320A4327
S2140045501A701A8C5205FCD1197E02320A431A765A
S2140045601A8C5205FCD19A79D207FCD502219A8C76
S2140045701A788A431A701A8C5205FCD10B4B0132FA
S2140045801A70CEE7052CD6D9094B0A49DA69063CDB
S2140045900A40F021DA61DA69240409030C40144366
S2140045A0DC610024C7E7C0469C0A00209E0A002063
S2140045B000140040FFFFF0FF000C00431E4B0721D5
S2140045C01B6810B51A00DB080A4012020B401343A2
S2140045D01A4A938513001A8C5205FCD118490432E6
S2140045E0C8690243CA61402216490A600868104238
S2140045F0FCD007225A7019325A811A8C5205FCD107
S2140046003F325A731A8C5205FCD1C02252011A81CD
S2140046101A8C5205520DFBD11A731A8C5205FCD116
S214004620094B01321A70094B1B78002B02D105206A
S214004630FFF764FF10BDC04620608000000C0043FA
S21400464000140040F81800409C0A00209E0A002033
S21400465010B500F06BF810BDF7B50C224243254D9F
S2140046600190535D042B2FD00027AA185278DB0147
S214004670214ED418A4192678204CF6B21C59BC42F8
S21400468004D0013797407C1EA741FFB21B4C1C1973
S2140046902469A44600246046A04204D00134944015
S2140046A0601E8441E4B2002F17D101980C3778437E
S2140046B02D18686801290DD1012C06D1410706D4B2
S2140046C0D3180D4A9B181E70F7BD0107F8D50421B4
S2140046D00E43F5E704218E43F2E7012904D1914009
S2140046E0064A9B189961EFE701219140034A9B18FF
S2140046F05961E9E79C0F010040280040002800406F
S2140047000C23584307490023425C042A06D0064B74
S214004710D201D2180918136A4A78D34001201840EB
S2140047207047C0469C0F010000280040F7B5050002
S214004730242800D96BE00C2343437F4FDA5DFB1837
S214004740D8785C78019098785B68042A5FD0192640
S2140047507642B44684446646012E01D9884256D134
S214004760CB40DB0701D41A2851D1081F172863D87D
S21400477005F052FA364764646262626250505D0C1D
S2140047800C62626262626290924D624D0623002A5B
S21400479000D18FE0694DD00120184019057804201B
S2140047A028404D1F022D01D902252843019D2D07C3
S2140047B001D54025284372B6D201002901D01A2916
S2140047C03ED10123A3405E4951184B608B61042300
S2140047D098435A4BA218D218107062B60020FEBD3D
S2140047E00C235D437F19BB7A122B10D00023002ABE
S2140047F060D0524DD001201840190578042028407A
S214004800D2E70C235D437F197B7A162B4FD101200C
S2140048104042E4E70C235D437F193B7A802BF6D0B9
S214004820062301980340581E83410433AFE7012353
S214004830019803400233DAE70923A8E70123A6E735
S2140048408D1E012D0CD80123A3403D4D55196B60DC
S214004850032903D16B6104231843BAE7AB61FAE777
S214004860012904D1A140364BD3189960AFE76108FF
S214004870344D51184919E50708D50F260D781B0148
S21400488035402B43DBB20B700123E5E70F260D788E
S214004890B543F6E70723AAE70823A8E72748D30186
S2140048A0E3181B18187804231840033B7EE7002AF9
S2140048B0F4D10123022C02D0052C00D06AE7062989
S2140048C000D167E7651F684245411F48475D002FD6
S2140048D000D15FE70027022647551C480778B743F4
S2140048E00770A027BF00013FFDD13F2786683E42E4
S2140048F0FCD1164E2F1DB4467F00BC446646B788D2
S2140049000226B7436646B7800F4F3E78002E03D187
S2140049107F78002F00D13DE70227067837430770DF
S2140049203F2786683E42FCD101277D1BAF40C579F4
S2140049302F42FCD02EE7C0469C0F010040280040C6
S21400494000280040302800409F0A00200030004227
S21400495070477047704770B50C002426050032007B
S2140049600021200007F0D0FFEB68266063600D236F
S214004970A360FDF7E7FF002220611100A86801F0A0
S21400498043FF6061012070BD70B50C002426050051
S21400499032000021200007F0B7FFEB682660636056
S2140049A00C23A360FDF7CEFF00212061A86801F06C
S2140049B07BFF6061012070BD10B5040001F040FA75
S2140049C0200010BD10B5040001F03AFA200010BD1A
S2140049D070B50400150001F05FFE074B257508331F
S2140049E0A361049B20006362044B24620833A36225
S2140049F0059B2463636370BD880C0100A40C010052
S214004A0010B501F05DFE10BD10B5027D0C00152A34
S214004A1007D0162A0DD008490B2A04D00B220749C6
S214004A2001E00B220649200009F0B2F80023E372E9
S214004A3010BD0B220349F6E7700C0100820C010042
S214004A40760C01007C0C0100037D152B06D0162B7E
S214004A5004D00B2B02D1024B4B627047014BFBE795
S214004A6040420F0080841E0070B50C00050028220E
S214004A700021200007F048FF2100A868FFF7C4FFC8
S214004A800123E360EB68210023610D23A8686361BE
S214004A90FFF7DAFFAB681A7D152A0BD0162A0FD05F
S214004AA000230B2A0ED1E3618023084ADB05A261AE
S214004AB0236270BD064BA361064BE361064BF7E726
S214004AC0064BF8E7A361E361F2E7C0460000484200
S214004AD00000A042000020C2CDCCCC3D0000FA422F
S214004AE070B50C00050028220021200007F00CFFFE
S214004AF02100A868FFF788FF0123E360EB68210028
S214004B0023610C23A8686361FFF79EFFAB681B7DDB
S214004B10152B0AD0162B08D00B2B0CD1084BA361F3
S214004B20084BE361084B236270BD084BA36100236A
S214004B30E361074BF7E70023A361E361F3E7C046B1
S214004B400000A0420000A0410000A0400000C842B3
S214004B50CDCCCC3D437A002B04D18372C372C360A4
S214004B6001334372704730B5040085B002AD00686B
S214004B700291039201F061FA6B79227AE17900934F
S214004B802068002301F070FB2979029A206801F062
S214004B9027FA206801F048FA05B030BD10B50400C9
S214004BA0FFF7D8FF20790E21FFF7C0FDA0790E2170
S214004BB0FFF7BCFD60790E21FFF7B8FD024B200021
S214004BC006CBFFF7D0FF10BDB40A002007B5837AE6
S214004BD000910192002B07D09A070AD5EFF31082B6
S214004BE053425341C37272B60099019AFFF7BBFF56
S214004BF007BDDB07F8D58389014AD360F4E7C046D2
S214004C0000240040837A002B05D09A0704D5C37A87
S214004C10002B00D062B67047DB07FCD5C368024A9B
S214004C209BB21361F7E7C0460024004010B5006849
S214004C3001F00CFA10BD70B506000C008D18AC42E1
S214004C4006D021783000FFF7F1FF20700134F6E738
S214004C5070BD0000094B0A4A1A6000225A711A7188
S214004C60084B5A72084A1A6023221A71023A9A713D
S214004C70013A5A711F3ADA711A727047B40A002064
S214004C8000093D00A40A00200815002013B50A4CB0
S214004C90200001F023FF6A460123D3701371FA2324
S214004CA0DB00D38000232000694693705370137096
S214004CB001F0BCFE16BDC046BC0A002010B5024876
S214004CC001F02AFF10BDC046BC0A002070B50C4C8F
S214004CD0C2B0200001F030FE0600200001F032FED7
S214004CE00500200001F034FE2B0002000549009666
S214004CF002A808F0DFFE02A800F036F942B070BD48
S214004D00BC0A0020FB0C010070B50C4CC2B02000A1
S214004D1001F012FE0600200001F014FE050020003F
S214004D2001F016FE2B0002000549009602A808F0C6
S214004D30C1FE02A800F002F942B070BDBC0A002015
S214004D40C00C010070B50C4CC2B0200001F012FE81
S214004D500600200001F002FE0500200001F004FE1F
S214004D602B0002000549009602A808F0A3FE02A840
S214004D7000F0FAF842B070BDBC0A0020D70C010063
S214004D8010B5024801F0CAFD10BDC046BC0A00209E
S214004D90072800DD0720C343DB171840014B1860C7
S214004DA07047C0468C000020F8B50E4E17003060E5
S214004DB0FEF7C0FA002308240B4D2B703068FEF770
S214004DC0BBFA00280AD1FA20013CC000FDF7F0FD2E
S214004DD0002CF3D13800FFF7DBFFF8BD01232B7062
S214004DE0F8E7C046C00A0020BD0A00200EB400B591
S214004DF00C4BC2B01B78002B10D00B4B1B688342A9
S214004E000CDBFFF781FF44AA439902A8019209F040
S214004E10E5F9064B02A91868FDF77AFE42B008BC11
S214004E2003B01847BD0A00208C000020C00A0020EE
S214004E30F0B51F00164BC1B01B780C001600002BF7
S214004E4024D0144B1B68834220DBFFF75DFF124D16
S214004E50002C08D011492200684608F02BFE69464F
S214004E602868FDF730FE3400A31BBB420ADA22781E
S214004E700B49684608F01EFE69462868FDF723FEC3
S214004E800134F1E707492868FDF742FE41B0F0BD5E
S214004E90BD0A00208C000020C00A00205A0D010028
S214004EA05E0D0100CE0B0100F7B501931E4B060008
S214004EB01B7800911400002B34D01C4B1B68062B6B
S214004EC030DD019B1A4D002B02D02B68002B12D030
S214004ED02B68E718FF2F0ED816482200C018009936
S214004EE007F0F7FC341E2F6005D03F223100124831
S214004EF008F04EFE0024019B234313D02B68002BA2
S214004F0008D00D4F0B4A39000720FFF791FF00230A
S214004F103B702B60002C05D02300009A3100072040
S214004F20FFF786FFF7BDC046BD0A00208C000020B4
S214004F30C40B0020C40A0020C80B0020074B10B585
S214004F401B780100002B07D0054B1B68062B03DDE2
S214004F50044B1868FDF7B7FD10BDC046BD0A00201B
S214004F608C000020C00A0020074B10B51B780100FB
S214004F70002B07D0054B1B68062B03DD044B186877
S214004F80FDF7C6FD10BDC046BD0A00208C000020FF
S214004F90C00A0020074B10B51B780100002B08D074
S214004FA0054B1B68062B04DD044B0A221868FDF728
S214004FB00EFE10BDBD0A00208C000020C00A002096
S214004FC01B4BF7B51B7806000F00002B2ED0194B95
S214004FD01B68062B2ADD002800D1174E002F01D1B2
S214004FE0164B1F88164D17492868FDF791FD0024BB
S214004FF07B1E325D9C420ADA1349684608F05AFD69
S214005000013469462868FDF75EFDA4B2F0E70F4953
S214005010684608F04FFD69462868FDF779FD09499E
S2140050202868FDF775FD0022044B1A80F7BDC046C0
S214005030BD0A00208C0000200A0C0020080C00206E
S214005040C00A00201D0D0100540D01005F0D010077
S21400505013B500206B46DC1DD87108F059FE201AE7
S21400506016BD000010B50121054801F04FFF0549A7
S214005070041E054800D00549FDF74AFD200010BD76
S21400508028100020640D010034040020710D01007A
S214005090F0B5C7B00C000500144903A801F0B4F938
S2140050A0002306AE009301332100FF333200104880
S2140050B0802701F0E1FD02247F00315DFF2909D140
S2140050C003A9280001F04AF903A801F055F92800C1
S2140050D047B0F0BD03A8013401F047FABC42ECD15A
S2140050E00449280001F090F9EEE7C046CE0B010017
S2140050F0281000206E0F0100F0B5144985B0050099
S214005100002401F081F90327114B1022195D01A834
S21400511001F0EEF901A9280001F014FA01A801F047
S2140051202BF92300661C3B40032B05D10F2C06D021
S2140051300849280001F00CFA3400102EE4D12800AB
S21400514001F068FA280005B0F0BDC046CE0B01009D
S214005150191500200B2C0100024B034A1B6810682F
S214005160584370473411002038110020014B18684E
S2140051707047C04634110020F0B50C0085B06B496E
S214005180050001F009FA002815D0694901A801F0C8
S2140051903BF9210001A801F0F2F901006548FDF78E
S2140051A0ADFC01A801F0E8F8200001F040FA624BDF
S2140051B0186005B0F0BD6149280001F0EDF900283F
S2140051C013D05F4901A801F01FF9210001A801F0E2
S2140051D0D6F901005748FDF791FC01A801F0CCF87C
S2140051E0200001F024FA574BE2E75749280001F067
S2140051F0D3F9002814D0200001F019FA534B544973
S214005200186001A801F000F9210001A801F0B7F923
S21400521001004848FDF772FC01A801F0ADF8C8E7A8
S2140052204C49280001F0B8F9071E06D0200001F00E
S214005230FEF9494B49491860E3E74949280001F05F
S214005240ABF9061E28D0200001F0F1F9454B051EEB
S214005250186011D101211020FFF7FAF90121112061
S214005260FFF7F6F929001020FFF7F6F901211120C3
S214005270FFF7F2F93C49C4E70128FBD101001020F2
S214005280FFF7E6F929001120FFF7E2F929001020C0
S214005290FFF7E2F93900EAE73449280001F07CF923
S2140052A0002828D0200001F0C2F9314B051E1860F6
S2140052B011D101210F20FFF7CBF901210C20FFF7B8
S2140052C0C7F929000F20FFF7C7F901210C20FFF7C7
S2140052D0C3F9284995E70128FBD101000F20FFF705
S2140052E0B7F929000C20FFF7B3F929000F20FFF7C4
S2140052F0B3F93100EAE72049280001F04DF900280B
S21400530006D0200001F093F91C4B1D49186078E781
S2140053101C49280001F040F9002800D149E7200088
S21400532001F085F9184B194918606AE7C80E0100A4
S214005330D50E01003404002038110020E50E0100CF
S214005340F00E010034110020FE0E010014100020A3
S214005350080F0100140F0100181000201E0F010096
S2140053602A0F01001C100020310F01003A0F010027
S21400537020100020410F01004A0F01000C100020F1
S214005380520F01005C0F010010100020640F010096
S214005390F0B5002195B03B4801F03CFC3A4C02A821
S2140053A0210001F031F8210005A801F02DF80121B7
S2140053B008A8FFF76DFE21000BA801F025F80026CF
S2140053C0012532490BA801F0E7F800284CD131003E
S2140053D008A801F0F7F8017811A801F07BF811A9E8
S2140053E00BA801F05EF811A800F0C6FF284F0BA826
S2140053F0390001F0D1F8274901900BA801F0CCF84C
S21400540043425841019B5A4253410340019308D0FE
S2140054100BA902A8002D00D105A801F093F80136CB
S214005420CFE739000BA801F0B7F8019D0028F6D1A8
S21400543002A90EA801F02BF805A911A801F027F87B
S21400544011A90EA8FFF798FE11A800F095FF0EA868
S21400545000F092FF210002A801F02BF8210005A819
S21400546001F027F80125DAE70BA800F085FF08A869
S21400547000F082FF05A800F07FFF02A800F07CFF86
S21400548015B0F0BD28100020CE0B0100891E0100CB
S214005490900D0100660B0100F0B5342487B01F4F55
S2140054A004930CAB03923D7804CB6C431B780291BB
S2140054B001931B4B01001C1906002000059208F002
S2140054C032FB029B019AE361039B2362049B6362A7
S2140054D0059BA3620E9BE36223003033012A0CD0A7
S2140054E000221A703B78320001330E4907203B70C9
S2140054F0FFF77CFC280007B0F0BD6A4612790A491F
S2140055001A7030000E9A2B0002F0B2FE3134020000
S214005510207006490720FFF769FCE3E72410002007
S2140055203C1100204C0E010075580000380E01009A
S2140055303423434310B50248C018C369984710BDCA
S2140055403C11002034234343074810B5C0183130BF
S214005550007802F005FF02230C2803D0013398429E
S21400556000D00023180010BD3C11002070B50D00BF
S2140055700221040002F077F8C0B2002816D101001C
S214005580200002F048F8C0B200280FD1280008F02A
S214005590D2FA29000200200002F049F8C0B2002822
S2140055A004D10121200002F036F8C0B270BD000020
S2140055B0F0B5A7B00191040006A902A815001E00C8
S2140055C080222CAB1F7802F015F834214F431C497B
S2140055D002A8C919FFF7CAFF002803D063231800E2
S2140055E027B0F0BD3200290002A802F020F8061EFF
S2140055F0F4D102A802F00BF8C7B2050039B22000B9
S21400560003F02CFC03230028E9D0EDB22A0006A9FB
S21400561007F05FF9019B0B491F700720FFF7E6FBB9
S2140056202B0006AA08490720FFF702FCFFF710FD2B
S214005630064902000720FFF7D9FB3300CFE7C04634
S2140056403C1100207F0D0100561801005F16010076
S214005650F0B50600A9B04C36059205000F0005AA65
S2140056600B2130001C0002F0A1FD0390002804D09E
S2140056708423BB7000233B643FE0039A0F21300075
S21400568002F094FD0290002801D18523F1E7AD7861
S214005690012D00D087E06A46127B02AB574902987C
S2140056A09A7502F059F80390002829D102AB1635F6
S2140056B0ED1834226B4662431B7B29002B70504B3F
S2140056C008A89B185B6A984716212B7802A80094B6
S2140056D0091808AA386DFFF76BFF0400039D02AB9C
S2140056E09B7D220047490720FFF780FB002C54D102
S2140056F0002D48D043233C64BB70002029B0F0BD89
S2140057004149029802F028F80290002870D1020061
S2140057100621300002F04AFD061E1CD002F052F9A7
S214005720002803D001280BD0042412E0342363435E
S214005730334CE4183134207802F0E8FD0400CEE75C
S214005740342363432E4CE4183134207802F0F2FD03
S2140057500400029DC3E734221725624302ABED180E
S214005760274B28709B1829001B6A08A89847162103
S2140057702B7802A80094091808AA386DFFF718FFBE
S21400578035000400ABE702AB9B7D02223B643B0086
S2140057903C331A704523BB70AFE7042C01D0142CA1
S2140057A02AD1862365E7032D00D06EE7342317261B
S2140057B06343134CE418A36A08AC0493029B2000CE
S2140057C09D7802ABF618029B357059682A0008F0DF
S2140057D0DFF96B461B7B310063552000049B98471E
S2140057E0002803D144233864BB7086E7012801D122
S2140057F0A1233EE70428D4D0A0233AE7FF0D0100FA
S2140058003C110020080E0100030E0100F7B506004B
S21400581000244C3601AA07000D0030000B2101942D
S21400582002F0C4FC300001AA0B2102F0BFFC060007
S214005830A04218D00D4B1B789C4212DA34236343E7
S2140058400B493000C91801F087FF002806D1230055
S214005850019A29003800FFF7FBFEFEBD0134E4B2D2
S214005860E8E78423AB7000202864F6E724100020C5
S2140058703C110020F0B50F25A7B0342402ABED187C
S21400588000230F00160054432B700A4B03901C197C
S214005890220009490720FFF7A9FA236A290006A86B
S2140058A098472B7806AA009639000398FFF780FEE3
S2140058B027B0F0BD3C110020620E010084238B70DF
S2140058C0002363200B64704700B591B01549684605
S2140058D008F029F91449684608F00EF96846FFF7FB
S2140058E043FB1249684608F01EF91149684608F05D
S2140058F003F96846FFF738FB0E4B0F4A0F49684618
S21400590008F0D8F86846FFF72FFB0D48FFF72CFB8A
S214005910FFF79EFB0B4902000720FFF767FA11B05E
S21400592000BDC0469A0D0100B80D0100BE0D010075
S214005930CB0D0100D10D0100DD0D0100E60D0100CB
S214005940CE0B01005F16010007B50122194B0100BE
S2140059501A700022184B19481A70914228D118491B
S214005960103208F015F908204042FFF78FF9E121C0
S214005970072249021348FFF717FA01210920FEF70C
S21400598067FE01210920FEF767FE0023FA22019335
S2140059900D4BD2005A2100930C48FF2303F0C6F8A3
S2140059A003F092F83220FDF703F8FFF78DFF07BDEE
S2140059B01022D6E792000020241000209C00002031
S2140059C0960D010034040020CE0B01007C1300204D
S2140059D010B5034A0D21034801F0CAF810BDC046B1
S2140059E0A40A0020281000207FB50500164901A84B
S2140059F000F00AFD154E3000FDF73EFCC4B22E2C1A
S214005A0015D0FF2CF7D0210001A800F0AEFD242C05
S214005A1009D10F49280000F0F7FC01A800F0ACFC03
S214005A20280004B070BD232CE5D10A49F2E7210016
S214005A3001A800F09AFD002101A800F096FD01A93A
S214005A40280000F08BFCE8E7CE0B010034040020B1
S214005A50920D0100940D010010B586B06846FFF760
S214005A60C3FF1A49684600F097FD194C00280FD06E
S214005A70012103A8FFF70CFB03A92000FDF73EF861
S214005A8003A800F079FC684600F076FC06B010BD6E
S214005A901049684600F080FD002803D003A8FFF7F1
S214005AA02BFBE9E7FFF7DEFA01236A4619000A48EE
S214005AB001F004F9002804D008492000FDF728F872
S214005AC0E1E707492000FCF7FEFFDCE7920D010046
S214005AD034040020940D0100281000207E0E0100E2
S214005AE0870E0100F8B5214B1B78002B3BD0204CCD
S214005AF02378002B09D01F491F48FDF709F800211D
S214005B001E4801F087F8002323701D4E3378002BC3
S214005B1026D11C4C0133236023680A2B10DC164D5B
S214005B202800FDF781FB071E0BD02800FDF7A4FB1D
S214005B30154BC1B228001970FCF7F4FF012333702F
S214005B40F8BD0A2221682800FDF741F8FA208000F7
S214005B50FCF72EFF23680A2BDCD1044B1F70EFE7FF
S214005B60FFF77AFFECE703F0E5F8E9E7910000209D
S214005B70900000208E0E0100340400202810002023
S214005B802C110020301100202D110020F8B5050042
S214005B900E0017000024BC4208D02B68315D1B683D
S214005BA028009847002801D00134F4E72000F8BD0B
S214005BB0704710B5183000F071F910BD10B51830E8
S214005BC000F05CF910BD70B5837D0D00002B01D18F
S214005BD0002070BD6030040000F07EF90028F7D188
S214005BE02000290000F03BF90120F2E710B518303C
S214005BF000F068F910BD0000F7B50193FA23002500
S214005C0004009B0083600A4B45600833036018302D
S214005C100F00160000F018F92000603000F014F9AC
S214005C206B461B7927612675A57520006375FEBD3A
S214005C30780F010070B50400006900F04FFA0028E4
S214005C4028D0206900F058FA00280ED1206900F00C
S214005C505DFA002850D0206900F053FA00284BD097
S214005C60206900F058FA002846D1206900F002FAB0
S214005C700321206900F008FA2300B0331D68002DC8
S214005C8004D0236820001B699847A84720001830D6
S214005C9000F0F0F870BD206900F0ECF920690321EF
S214005CA000F0F2F9206900F036FA0028F2D0200061
S214005CB0603000F0DFF80123A375AC342368002BB6
S214005CC0E8D09847E6E71835280000F005F90028E0
S214005CD007D0206900F0C6F90321206900F0D4F946
S214005CE0D8E7206900F01CFA0100280000F0B7F899
S214005CF0206900F0BFF9EFE7206900F007FA0028F6
S214005D00C9D1206900F0F3F90028C3D0206900F05B
S214005D1002FA25000028D6D06035280000F0BEF82C
S214005D20FF21002803D0280000F0A8F8C1B220699F
S214005D3000F0C6F9A075ADE710B50248FFF77AFF88
S214005D4010BDC0460C12002010B5172316220249BB
S214005D500248FFF751FF10BD081500200C12002066
S214005D6010B50248FDF732F910BDC046C01200203B
S214005D7010B50248FDF72AF910BDC0467C13002076
S214005D8010B50248FDF722F910BDC04638140020B1
S214005D90F7B584211A48C90500F0A9F819491A4828
S214005DA000F0A5F8194F1A49380000F0A0F8194D70
S214005DB01949280000F09BF8184E1949300000F0E9
S214005DC096F81849184800F092F80124002331008C
S214005DD003260193220000941448FDF7C9F8390001
S214005DE0009601940A230B221148FDF7C1F800968D
S214005DF029000194122315220E48FDF7B9F8F7BDC5
S214005E00F414002000040042F8140020FC140020C3
S214005E100008004200150020000C00420415002077
S214005E20001000420004004308150020C0120020A5
S214005E307C1300203814002010B506F015FD10BDA8
S214005E4010B506F01BFD10BD10B540220021040061
S214005E5006F05AFD002320002364636410BD3F2231
S214005E60036C01331340426C9A4202D0026C815498
S214005E70036470470023036443647047426C036CFA
S214005E809A4208D03F21436CC25C436C01330B40FE
S214005E9043641000704701204042FBE7036C406CEF
S214005EA0181A00D540307047026C436C9A4204DBE7
S214005EB0036C406CC01A3F307047436C006C181A75
S214005EC00138F9E7426C036C9A4202D0436CC05C1E
S214005ED0704701204042FBE703003F22006C5B6CEA
S214005EE001301040C01A43425841C0B270470160AA
S214005EF07047F0B505AC25780468981E471EB84173
S214005F0026689207000632430243072022600140BB
S214005F10AD01626829430020022B00D058031143CC
S214005F2001436160F0BD10B5C0240368A40318687F
S214005F30120522400243C02009048002014011439A
S214005F4019605A681043586010BD0122036819682A
S214005F500A431A601A68D207FCD4DA69D207F9D461
S214005F6070470222036819680A431A60DA699207C2
S214005F70FCD4704703681A7ED20702D41A7E9207B2
S214005F80FCD57047002203685A8370470368187E62
S214005F904007C00F70470368187EC009704780230B
S214005FA002685B42117E0B43137670470368187EC7
S214005FB0C007C00F70470368188DC0B270470368EB
S214005FC01A7ED207FCD589B20120198570470122B6
S214005FD003689A757047012203681A7570470000B7
S214005FE070B5012504684B082B4029402068090736
S214005FF05B070B4303432360044B5100186803F010
S21400600015FE0138C0B2207370BDC0469400002053
S2140060100122036819680A431A601A68D207FCD47A
S214006020DA69D207F9D470470222036819680A436E
S2140060301A60DA699207FCD470470368DA69920737
S214006040FCD402211A688A431A6070470268936A71
S2140060505B0A5B0219439162137E5B07FCD5906A6C
S214006060C0B2704780230268DB02116851680B4398
S21400607053607047036803491A685A680A405A60B2
S2140060807047C046FFFFFBFF036810B51868032281
S214006090C006400F094C052809D15868114009046C
S2140060A0204001435960DA695207FCD410BD586895
S2140060B011400904204001435960F7E7FFFFFCFF49
S2140060C0036800201A00283211701A7E520704D581
S2140060D0588B01234007C00F584070470368186864
S2140060E0C006400F043843425841C0B270470368A8
S2140060F0187E4007C00F70470368187EC007C00FA1
S21400610070470368588BC006C00F70470368187E38
S2140061108007C00F70470368588B0007C00F704792
S21400612003681A68D206520F052A02D11A7E920711
S214006130FCD528331878C0B2704700008422036864
S21400614030B5D205934211D0214A934234D0214A29
S214006150934234D0204A934234D0204A934234D0DB
S2140061601F4A934227D10D23182201E0082312224A
S2140061700121032599401B48C024016099082B4043
S214006180AB40FC359D4089000918A40008599200D0
S214006190A843C0259D402B0003430B51124BD1183A
S2140061A04023CB6711490868114908600E49521808
S2140061B0D16F1942FCD030BD09231322D8E70A2339
S2140061C01422D5E70B231522D2E70C231622CFE79D
S2140061D00004004200080042000C0042001000428A
S2140061E00004004300E100E004180040880000209E
S2140061F094000020F8B516001D000268184B040035
S2140062000F009A4200D101262000FFF797FF2000DA
S214006210FFF79BFE1C22BB00134072072468120C7B
S214006220134323608423A375012F18D11021012E58
S21400623000D008390B4B69431868C00003F0F6FC21
S2140062400722A3890240DB045203DB0C1343A3811D
S2140062500304A089DB0C400B40031843A081F8BD63
S2140062600004004394000020F7B50700019308AB34
S2140062701E780D001400FFF7CBFE3800FFF75EFF18
S214006280C022240592031440B2070C2607211643A9
S214006290019A34430A40C02611008022B6022D041B
S2140062A03B683540920225430A431D605A60F7BD9D
S2140062B070B50E0000254468002C0BD02368310012
S2140062C05B6820009847002802DB2D18E468F3E797
S2140062D001256D42280070BD70B50D004468002C85
S2140062E008D0236829009B6820009847002802D120
S2140062F0E468F4E7200070BD70B50D004468002C1B
S21400630007D0236829002000DB689847E4682D182A
S214006310F5E72C7070BD70B50D004468002C08D0F1
S214006320236829001B6820009847002802D1E468EB
S214006330F4E7200070BD00000121064A10B513687E
S21400634005480B4005D102240470241944704360AC
S214006350116010BD0C1500201015002000230360EE
S2140063600A68436002604A68836042608A688260A6
S2140063700B604B608B60704710B50400006806F039
S2140063807DFA200010BD10B504000068002801D07A
S21400639006F074FA00232360A360636010BD70B536
S2140063A004000D000068013107F068FB031E01D0F1
S2140063B0012028C470BD036810B50400002B04D06B
S2140063C043688B4201D3012010BD2000FFF7E7FF92
S2140063D00028F9D0A368002BF5D122681370F2E7E5
S2140063E070B50E00110004001500FFF7E4FF00284A
S2140063F004D12000FFF7C7FF200070BDA560310064
S214006400206807F090FBF7E7002370B504000D0046
S214006410036043608360994207D0080007F08BFB57
S214006420290002002000FFF7DBFF200070BD70B5DA
S214006430050000680C00002804D0096800290BD16C
S21400644006F01CFA23682B6063686B60A368AB6079
S21400645000232360636008E06B68A2689342EFD372
S21400646007F061FBA368AB600023A36070BD10B5A6
S2140064700B000400884205D00968002904D09A68F9
S214006480FFF7AEFF200010BDFFF77DFFFAE7002301
S21400649010B50400036043608360FFF7E8FF200048
S2140064A010BD10B50400814201D0FFF7C0FF2000E8
S2140064B010BD70B504000D1E09D0080007F03BFBA8
S2140064C0290002002000FFF78BFF200070BDFFF7B9
S2140064D05AFFFAE7002313B5040001AA11700360FF
S2140064E04360836011005370FFF7E3FF200016BD82
S2140064F01FB504000023080023606360A36001A9A1
S21400650002F014FF01A92000FFF7D3FF200004B01B
S21400651010BDF8B504000F1E02D100263000F8BDED
S2140065200126002AFAD08368D5182900FFF743FF12
S2140065300028F2D02368A2683900981807F0F3FA0A
S214006540A560EBE710B58A680968FFF7E2FF10BDA3
S21400655070B505000C00081E06D007F0ECFA210006
S21400656002002800FFF7D5FF70BD07B5002201AB7B
S21400657019705A7019000132FFF7CBFF0EBD10B527
S2140065808A6809680400FFF7C4FF002802D12000CB
S214006590FFF7F9FE200010BD836810B5002B07D169
S2140065A00120002903D00B7858425841C0B210BDD4
S2140065B0002902D103681B78F6E7006807F0A9FAFD
S2140065C00300F1E783688B4203D903685818002B51
S2140065D002D10023014803707047C04618150020FA
S2140065E070B50D00002A06D0002904D084689C42AD
S2140065F002D800230B7070BD013AE41A944200D909
S214006600140001682200C918280007F0C1FA002308
S2140066102B55F0E710B50468002C07D0207800282A
S21400662004D007F07FFB20700134F7E710BD036845
S21400663010B5181E01D005F0EDFF10BD1FB50E4BAE
S21400664000221B6800930D4B1B6801930C4B1B68C4
S21400665002930C4B1B680393030069468958043267
S2140066600C0E1C700C0C5C700C0A9C70D9700433F9
S214006670102AF2D104B010BD0CA0800040A080000B
S21400668044A0800048A0800010B50248FFF7D6FF5F
S21400669010BDC04619150020074B10B50400417107
S2140066A082710649186803F0C1FAFA239B00584322
S2140066B0E060200010BDC0468800002040420F0069
S2140066C010B5040002214079FDF7C2FF014BA3601C
S2140066D010BDC04630F8FFFF70B505000E00002460
S2140066E06879FEF70DF8B04204D1EA68631C94425C
S2140066F002D30024200070BD1C00F1E770B5D0B0B6
S2140067000D000400FCF71EF9002D07D1A3683D4AD2
S214006710C31A934202D8207C50B070BD0025A060FA
S214006720012160792571E570A57065702570FDF70B
S21400673093FFFA20FCF73CF960790121FDF788FF0A
S21400674060792900FDF788FF1420FCF731F972B64E
S21400675001216079FDF780FFA0239B00013BFDD15E
S21400676002216079FDF774FFA023013BFDD12900CB
S2140067702000FFF7B1FFA84203D10020207462B6C4
S214006780CAE701212000FFF7A7FF0028F5D0A026C2
S214006790760000212000FFF79FFF6B460121E8509E
S2140067A02000FFF799FF2B0008356B445860B54270
S2140067B0EFD162B6002201216846D300C0586B4470
S2140067C05E68002801D0002E02D100202074A3E7C6
S2140067D0D510635D5B00DBB2B04210D30132635567
S2140067E0282AE9D16178237822795B18A1785B188A
S2140067F0E1785B18DBB29A42E7D10120E6E70B436B
S214006800ECE7C046CF070000F8B50D001100040005
S214006810FFF774FF002807D0A379DAB20B2A05D059
S21400682002D3153B012B13D9194810E0A07803F0CA
S214006830EBFF002D0BD005F0D5FD164A164B04F0E5
S2140068406DFF0022154B04F025F805F01DFEF8BD7F
S2140068507F20A678304003F087FF8721C90503F024
S2140068602BFE071CE07803F07FFF391C03F0EAFBE1
S21400687005F0B8FD0A4A0B4B04F050FF76B205F05F
S21400688003FE002ED5DA80231B06C018D1E7C046CB
S2140068900000C07FCDCCCCCCCCCCFC3F0000404030
S2140068A09A9999999999B93F70B500210400FFF714
S2140068B025FF002807D0A379DAB20B2A05D002D329
S2140068C0153B012B05D90E4802E0207803F09CFF0B
S2140068D070BD207803F098FF8721C90503F0ECFD12
S2140068E0051C607803F040FF291C03F0ABFB05F0A5
S2140068F079FD044A044B04F011FF05F0C5FDE7E7F7
S2140069000000C07F9A9999999999B93F024B1869E6
S214006910431E9841C0B27047002000400023037019
S2140069207047000010B5FFF7F1FF0028FBD1014BC0
S214006930986910BD0020004010B5FFF7F3FF3F2315
S214006940184010BD10B5FFF7EDFF0005800E10BD16
S21400695010B5FFF7E7FFC003C00E10BD10B5FFF778
S214006960E1FF8002C00E10BD10B5FFF7DBFF80010F
S214006970000F10BD10B5FFF7D5FF800E10BD00004C
S214006980C888094BCA78C01883060879520480055F
S21400699010430A7810438A78120310434A7892010B
S2140069A0104318437047C04630F8FFFFFA2010B572
S2140069B01F248B0EC0001B18480C2040D0703F20B0
S2140069C0D3808B011B0F13710B0B234093708B0925
S2140069D0034001405370117010BD000010B5FFF762
S2140069E095FF0028FBD10221054B064A1A819A81A1
S2140069F01A888A431A80FFF789FF0028FBD110BD4A
S214006A0000200040FF81FFFF10B5FFF77FFF002842
S214006A10FBD10223044A11880B431380FFF776FF4D
S214006A200028FBD110BDC0460020004070B5050010
S214006A30FFF7A6FF0600FFF769FF0028FBD10B4C07
S214006A402800FFF7CBFFA661FFF760FF0028FBD109
S214006A5080222388120213432380FFF757FF002863
S214006A60FBD12800FFF7D0FF70BDC04600200040D5
S214006A701FB50E4B0400994200D2190001A80191DF
S214006A8005F0ECFD037B02A9CB700369084A0133CD
S214006A900B7143699B18CB80037A8B7003794B701C
S214006AA0036820000B70FFF7C1FF1FBD80436D38E1
S214006AB06C07000010B5FFF791FFFFF727FF0028CF
S214006AC0FBD10123044A11880B431380FFF71EFFF6
S214006AD00028FBD110BDC04600200040802310B522
S214006AE0094A5B00516904000B4353610422074BBB
S214006AF01A61FFF7DFFF064A064B20001A80FFF7F1
S214006B0083FF0123237010BD0004004000100040E6
S214006B10088BFFFF0020004030B5134C8DB0236873
S214006B200500002B03D1FFF7D9FF012323602800BF
S214006B30FFF7F8FE01AC010022002800FFF736FF41
S214006B40E3880A4A03A89B1808932379013B079316
S214006B50E3780693A37805936378049323780393E6
S214006B6005F0A6FF0DB030BD2C15002094F8FFFFF1
S214006B70F8B5254B1600FF22036000230D005221B6
S214006B8042748274C2740275421C437103710372AC
S214006B9043778377C377D3772A32117005315170E4
S214006BA000220400194F8367C3670263390012226C
S214006BB09C3005F08EFE2000390048221431B0309B
S214006BC005F087FE2000390009225C31F83005F018
S214006BD080FE3900A01C6531FF30032205F079FEE7
S214006BE00B4BE6609E420CD10A2328006375257481
S214006BF00121FDF72DFD207C0121FDF72DFD200054
S214006C00F8BD0B23F1E7C04600093D00581101000E
S214006C10A40A002070B5437D04000D000B2B02D0A3
S214006C20C068FDF7BBFF237A002B07D11B226270DA
S214006C30643A2370A270E370237163712900200008
S214006C4000F0E4FB0500200000F0A0FA002320007E
S214006C50A37700F095FB280070BD000010B5054C2A
S214006C60002901D1207810BD2178012200F06EFCA9
S214006C70F8E7C046AC1C0020F7B51E0008AB1B7832
S214006C80170001930A0033000321040000F0E2FA23
S214006C90051E10D0019B0B21002B00D103212000E4
S214006CA000F0AAF9200033003A00032100F0FEF9B4
S214006CB0200000F06BFA2800FEBD0000F0B589B099
S214006CC09668040010006A4600AF7B60731CFB6188
S214006CD00733DB08DB00D31A9D467961FB60721C24
S214006CE000236946FFF77CFC200000F061FA051ED1
S214006CF002D00023BB6174E004227969200000F012
S214006D002FF90028F5D0721D7969200000F0A4F94B
S214006D100028EED07C49200000F058FA0028E8D081
S214006D200121200000F078FA0028E2D0022120009D
S214006D3000F062F9FA692600EA402C36D2B23178C1
S214006D402000083500F0ACF9202DF3D10121207C7D
S214006D50FDF782FC200000F019FA7B69FA6904331B
S214006D6019002000BB6000F0FBF80028C1D066497F
S214006D70200000F02BFA0028BBD00121200000F0F4
S214006D804BFAB8610028B4D080253B7D6D00ED1A23
S214006D90FB69ADB2AB4228D8207C0021FDF75CFC35
S214006DA031780222200000F07BF9200000F0FCF889
S214006DB00025FB69AB420AD9FB6820005A5D230018
S214006DC02C331978013500F06BF9ADB2F1E7207C71
S214006DD00121FDF741FC7B68002B4FD1200000F01D
S214006DE0D5F9BD46B86909B0F0BDBB8B7B61002301
S214006DF03B617B69AB4200DC1D00207C0021FDF777
S214006E002BFC23002C3319780222200000F048F9CE
S214006E10200000F0C9F80026AE420CDA3A69FB689A
S214006E2020009B189A5D23002C331978013600F059
S214006E3037F9B6B2F0E7207C0121FDF70DFCA36F11
S214006E4031495B19A3673B6920005B199BB23B6124
S214006E507B695D1BABB27B6100F0B8F9002800D1FE
S214006E6047E70121200000F0D7F9002800D140E7CD
S214006E7080257B696D00002BBBD1ACE76B462249B1
S214006E8020007B6100F0A2F9B861002838D06A467D
S214006E90BB68207CA367FB6900210733DB08DB00A7
S214006EA0D31A9D46FDF7D8FB23002C33197803220E
S214006EB0200000F0F5F820006E4600F075F800257A
S214006EC0FB69AB420AD923002B3319780022200035
S214006ED000F0E6F870550135EDB2F1E7200000F05D
S214006EE055F90023FA699A4207D9FA68F15CD25C30
S214006EF0914205D10133DBB2F4E77B699D4670E72A
S214006F007B699D46F5E6C04600CA9A3B030070B50D
S214006F1054331D7804000A00002D05D12A000C21E8
S214006F2000F014FB280070BD8023EF215B0200F008
S214006F3091F9051EF6D0230055331978200000F08D
S214006F405BF8200000F022F9A16D200000F03EF969
S214006F500500E7E710B5C068FDF768FE10BD000045
S214006F60F8B50F00002105001600FFF777FEF7239F
S214006F7003400020032B08D0EC6B844206D109485E
S214006F802200012102F0EAF92000F8BDBE19B44241
S214006F9004D8361BEE67AF670120F6E70023EB67E1
S214006FA0F9E7C046AC1C002010B5C37F0400002BD8
S214006FB004D003007B331978FFF7CCFF23007A3325
S214006FC019782000FFF7C6FF2300793319782000D0
S214006FD0FFF7C0FF2300783319782000FFF7BAFFC9
S214006FE0012010BD10B5016804004268C068FDF7B6
S214006FF0EDFD0120607710BD70B5437F04000D00E5
S214007000002B01D1FFF7EEFF207C0021FDF724FBCB
S2140070100B2D15D005D8022D09D0032D07D0290039
S21400702016E0522D03D0D82D01D0202DF7D12900FF
S2140070302000FFF78FFF2000FFF7B6FF012070BD8E
S21400704029002000FFF786FF2000FFF7ADFFEE21A6
S2140070502000FFF77FFFF1E770B50321040016005C
S2140070600025FFF7C9FFB54212D00021E068FDF702
S214007070DDFDFF280AD0207C0121FDF7EDFA074848
S2140070800022072102F06AF9002070BD0135EAE708
S214007090207C0121FDF7E0FA0120F6E7AC1C002079
S2140070A010B51100C068FDF7C1FD10BD10B50C008D
S2140070B011001A00022C01D0032C02D1C068FDF783
S2140070C0BAFD10BD70B504000521FFF795FF00213D
S2140070D0E068FDF7ABFD251DE877207C0121FDF774
S2140070E0BBFAE87F70BD70B504001521FFF784FF7A
S2140070F00021E068FDF79AFDA51DE877207C0121B8
S214007100FDF7AAFAE87F70BD70B506000124FFF708
S214007110EAFF20420ED1B7213000FFF76DFF307C2A
S2140071202100FDF799FA3000FFF7DDFF2040051E2D
S21400713002D0F477200070BD02000D21024802F054
S2140071400DF92C00F6E7C046AC1C002070B5050013
S2140071500124FFF7C8FF204212D0E9212800FFF7DC
S2140071604BFF287C2100FDF777FA2800FFF7BBFFCE
S214007170204007D000220E21034802F0EFF800243A
S214007180200070BDE877FBE7AC1C002010B50400BB
S2140071900121007CFDF760FAE37F002B02D020007F
S2140071A0FFF7D4FFE068FDF72DFD0023637710BDE1
S2140071B010B5847F002C04D000220F21024802F074
S2140071C0CDF8200010BDC046AC1C0020F8B5060067
S2140071D00C002023013BFDD1FBF7BAFB012705007D
S2140071E03000FFF76FFF331DDB7F3B4201D10120EC
S2140071F0F8BDFBF7ADFB401BA042F1D3FBF7A8FBA5
S214007200401B8442F3D803480022042102F0A6F86B
S2140072100020EDE7AC1C002070B504000D00062130
S214007220FFF7EAFE207C0121FDF716FA2000FFF7A3
S21400723049FF0224044009D1002D05D02200062172
S214007240034802F08BF82500280070BD0125FBE7F7
S214007250AC1C0020F8B51E00030037331B78040072
S2140072600F001500EF2B14D0022F1BD0EF2F37D0B6
S2140072702000FFF79DFF002812D1320029002000D1
S214007280FFF76EFE00280BD01B492000FFF79EFF7D
S21400729007E01A4B9A42E7D9FFF736FF0028E3D1FA
S2140072A00020F8BD2000FFF783FF0028F8D1320049
S2140072B029002000FFF754FE0028F1D032002900F4
S2140072C02000FFF7C9FE0028EAD00B492000FFF790
S2140072D07DFF0028E4D001212000FFF79DFFE0E7B6
S2140072E02000FFF765FF0028DAD1320029002000D1
S2140072F0FFF736FEE7E7C04600CA9A3BFFFFFF00EF
S21400730010B504000421FFF777FE207C0121FDF76D
S214007310A3F9012010BD000070B517490400FFF75F
S21400732055FF051E25D09F212000FFF765FE26008D
S2140073300021E068FDF77AFC373630700021E068FF
S214007340FDF774FC2300383318700021E068FDF761
S2140073506DFC230039331870207C0121FDF77CF981
S2140073603478002C05D122000B21044801F0F6FFEA
S2140073702500280070BDC04600CA9A3BAC1C002001
S214007380030070B538331B780400252B1CD1FFF79B
S21400739099FE231DDD7F3C23502120009D43FFF7EF
S2140073A02BFE207C0121FDF757F901212000FFF775
S2140073B023FE29002000FFF7CDFD207C0121FDF7EC
S2140073C04BF90125280070BD0125262BFAD10E4960
S2140073D0FFF7FCFE051EF5D001212000FFF71CFF7D
S2140073E0A023013BFDD198212000FFF705FE207C5D
S2140073F00121FDF731F9C8239B00013BFDD1200098
S214007400FFF77EFFDEE7C04600CA9A3B0200F8B5EB
S214007410012364321370103A1370083A1370083A56
S21400742013700300202245331A7032321A728632E5
S2140074301A74414B00228364404B05000365404BA1
S2140074406535836503005C331A7060232B703D4BF3
S21400745004008366030001327233FF321A800E0086
S214007460FFF75AFF2300A21C37331978FF32C133C7
S2140074701878884227D12300012235331A7023005A
S21400748022003833FF321B789078984205D0D078A7
S214007490984202D012799A4201D1C7232B7023005A
S2140074A035331D78002D32D027003937C22911D147
S2140074B03B78132B0BD0142B1BD000220221224822
S2140074C001F04CFF06E001339342D1D1D7E7802389
S2140074D0DB03E36300233A7819009C31615C914238
S2140074E00AD12C339B001B593434A360012323702C
S2140074F012E080231B04ECE70133122BECD1E36B84
S214007500002B08D1002E0FD0E6633434EFE7363474
S2140075102578002D02D001252800F8BD2A0002217A
S214007520094801F01BFFF7E732000321064801F087
S21400753015FF3500F0E7C04600CA9A3B0050D6DC7F
S214007540004059730000DD0EAC1C002010B5024848
S21400755001F004FF10BDC046AC1C0020F7B5844601
S2140075600D00019216BAD3B20024172A0AD91300C6
S214007570183BE72B11D9531E1C49FF3B8B420FD8F3
S21400758019230224A96868680F19B8420BD2012390
S2140075900124EB6064422000FEBD18230124F1E7BD
S2140075A01A230424EEE760464F1C1843AF600870A9
S2140075B0002CF0D0022C0ED0042C15D00823012C61
S2140075C0E6D1220001A9A86805F083F9AB681C196A
S2140075D0AC600024DFE70649130292B20B40120AA1
S2140075E01A4392B20192ECE70196EAE7FFFE00002A
S2140075F000FFFF0070B505000C00160000211022E9
S21400760005F082F92C60AC60A4196C6070BD8368CC
S2140076100068181A7047002310B50A00994201DA6C
S214007620CA43203301001800FFF798FF10BDF8B5D5
S21400763004000F00010060201500FFF78FFF061EF4
S21400764007D1A06863681B1A9D4204DD0123013E32
S214007650E3603000F8BD2A00390005F03AF9A36867
S2140076605D19A560F5E710B50A000100A020FFF738
S21400767075FF10BD42884368012A03D0022A03D052
S214007680002000E0187870475878FCE73F2210B5D5
S21400769001650B791D249343402B16D10B1D036106
S2140076A00B79303A9B069B0F03700B791A40427099
S2140076B04B7983708C79CB7924021B190024838044
S2140076C004640831063005F004F9200010BD436854
S2140076D0186800BA7047000070B5020005000C007C
S2140076E007200949FDF782FB0C200849084B0A7859
S2140076F05043C5521B18043321CC21C30323013247
S2140077001A4000200A7070BDE311010068160020C0
S2140077103816002070B5020005000C0007200C4942
S214007720FDF764FB00220C210A4B1600042A0DD03C
S2140077300800013250430C38185AA842F5D171435C
S2140077405B185A6821009868904770BD0C20FCE7CB
S214007750C01101003816002070B503000C0001208F
S21400776000290AD05D8858682A0006F000FA00282A
S21400777003D1200006F0DFF9281A70BDF0B500240A
S214007780124D85B0019003942C70019803AA0B212A
S2140077904C3000F00BFD061E12D043881B19FF2B41
S2140077A011DC2F23671C2B55EC19428841682000FA
S2140077B005F08FF800227388E2547488E419E4E731
S2140077C0280005B0F0BD0020FBE7C04632150020BB
S2140077D010B5C0B000236A46137003780400294A27
S2140077E0002B06D0284A012B03D0284A022B00D0B3
S2140077F0274A28490720FDF7F9FAA3781F2219001F
S214007800914336D1244A012B09D0244A022B06D0B4
S214007810234A032B03D0234A042B00D0224A2349B1
S2140078200720FDF7E3FA2000FFF7A8FF0378010022
S214007830002B02D0684606F05FF9200000224C308C
S2140078400F2100F0B3FC041E08D01949684606F064
S21400785053F962886168684606F074F96B461B78CF
S214007860002B04D06A4613490620FDF7BFFA40B045
S21400787010BD114A402903D0104A802900D0104A72
S2140078801049CDE79F1301009B130100A7130100C9
S214007890A3130100E7130100B0130100AB130100AE
S2140078A0B4130100BE130100B8130100F813010061
S2140078B0850C010016140100D2130100DA13010032
S2140078C0C51301000914010070B50F260B781D11B1
